:020000040800F2
:10000000FCFF00203D2A0000F1280000F12800003C
:10001000F1280000F1280000F1280000F12800007C
:10002000F1280000F1280000F1280000F12800006C
:10003000F1280000F1280000F1280000F12800005C
:10004000F1280000F1280000F1280000F12800004C
:10005000F1280000F1280000F1280000F12800003C
:10006000F1280000F1280000F1280000F12800002C
:10007000F1280000F1280000F1280000F12800001C
:10008000F1280000F1280000F1280000F12800000C
:10009000F1280000F1280000F1280000F1280000FC
:1000A000F1280000F1280000F1280000F1280000EC
:1000B000F1280000F1280000F1280000F1280000DC
:1000C000F1280000F1280000F1280000F1280000CC
:1000D000F1280000F1280000F1280000F1280000BC
:1000E000F1280000F1280000F1280000F1280000AC
:1000F000F1280000F1280000F1280000F12800009C
:10010000F1280000F1280000F1280000F12800008B
:10011000F1280000F1280000F1280000F12800007B
:10012000F1280000F1280000F1280000F12800006B
:10013000F1280000F1280000F1280000F12800005B
:10014000F1280000F1280000F1280000F12800004B
:1001500081B000F218010A68C2F3400181F0010188
:10016000C9B2C8B201B0704783B0CDF800E000F06A
:10017000FF031A09104603F00F02134614E0194A50
:1001800002921FE0184A02921CE0184A029219E0FB
:10019000174A029216E0174A029213E0164A029298
:1001A00010E0164A02920DE00028E8D00128E9D0BC
:1001B0000228EAD00328EBD00428ECD00528EDD0A3
:1001C0000628EED0012212B29A40ADF8042002981F
:1001D0000A46BDF8041000F0B7FEDDF800E003B0F9
:1001E000704700BF00080140000C014000100140B2
:1001F0000014014000180140001C01400020014093
:1002000001480068704700BF4C02002081B000F236
:1002100014010A6800F218010968090442EA0101A0
:10022000084601B07047FFFF01490860704700BFF2
:10023000A081224201490860704700BFA481224288
:1002400001490860704700BF988121420149086058
:10025000704700BF9401214201490860704700BF08
:100260009C81214201490860704700BFA881224259
:1002700001490860704700BFB4812242014908600B
:10028000704700BF8801224201490860704700BFE3
:100290009001214201490860704700BFA801224235
:1002A00001490860704700BF800121420149086090
:1002B000704700BFB001224201490860704700BF8B
:1002C000AC01224201490860704700BF9881214279
:1002D00001490860704700BF9481224201490860CB
:1002E000704700BF9881224201490860704700BFF3
:1002F0009C81214282B0CDF800E0CFB20146984601
:10030000029B4FF000064FF00005C44CA14207D1FC
:10031000C34CD4F80090C34C2568C34C25600BE057
:10032000C24CA14207D1C24C2068C24C2568BE4CC9
:100330002560814600E0A946BF4CC4F80090F4E176
:1003400001F210057C00A4B244F00104A4B22C60B8
:10035000019616464F46019A01F214042568C5F32A
:10036000400464B9B44C246844B127B90320AE4CAE
:100370002468A047E2E1781E0746FFE7ECE7002586
:100380000C6865F38A240C6001F21404206800BF35
:1003900001F218042468240440EA04042046012BD6
:1003A00005D101250C6865F349240C6004E00125A2
:1003B0000C6865F308240C609F4C256891469846AC
:1003C00037460E469D49304600F0C2F968B99A4C4E
:1003D00024684CB125B90320934C2468A047ADE1B3
:1003E0006C1E20460546FFE7ECE707EB090506F221
:1003F000100424682C70B8F1010F13D18E4C2168C1
:1004000030460568C5F340245CB98B4C24683CB188
:1004100021B90320844C2468A0478FE1491EFFE7DF
:10042000EFE712E0844C216830460568C5F30024EC
:100430005CB9814C24683CB121B903207A4C246812
:10044000A0477BE1491EFFE7EFE777E101250C6854
:1004500065F38A240C6001250C6865F3CB240C60DD
:1004600001F210057C00A4B244F00104A4B22C6097
:100470004F4601F214042568C5F3400464B96E4C7C
:10048000246844B127B90320674C2468A04755E18C
:10049000781E0746FFE7ECE701F21404206800BF6E
:1004A00001F2180424682404204300250C6865F335
:1004B0008A240C60604C276801F214042568C5F397
:1004C000800464B95C4C246844B127B90320564CBD
:1004D0002468A04732E1781E0746FFE7ECE7012BCE
:1004E00005D101250C6865F349240C6004E0012561
:1004F0000C6865F308240C60951901F21004246857
:100500002C70741C151901F2100424682C70012B36
:1005100014D1494C22680D68C5F3402464B9464C97
:10052000246844B122B903203F4C2468A04705E168
:10053000501E0246FFE7EEE7084613E03E4C2268F5
:100540000D68C5F3002464B93B4C246844B122B95A
:100550000320354C2468A047F0E0501E0246FFE718
:10056000EEE708460025046865F3CB240460E5E067
:1005700001250C6865F38A240C6001F210057C00EB
:10058000A4B244F00104A4B22C604646C846894691
:1005900017461D462A49484600F0DAF878B9264C35
:1005A00024685CB1B8F1000F04D103201E4C24680C
:1005B000A047C3E0A8F101008046FFE7EAE7002179
:1005C000A8464A46B1463B46A9F10304A14222D2BD
:1005D000194C25688A4617461E461849384600F0C9
:1005E000B7F860B9144C246844B125B903200E4C07
:1005F0002468A047A2E0681E0546FFE7EDE706EB8A
:100600000A0507F2100424682C700AF1010421463F
:1006100033463A46D8E7084C00F014B8005400407E
:10062000DC0100205402002050020020005800404D
:10063000E001002058020020E401002040000300F7
:1006400002000300276801930B46164642460199B3
:1006500006F214042568C5F3800464B9394C246893
:1006600044B127B90320384C2468A04766E0781EBF
:100670000746FFE7ECE70025346865F38A24346019
:10068000CD1806F2100424682C70581C2D4C2368D9
:100690001746024606F214042568C5F3800464B9BF
:1006A000284C246844B123B90320274C2468A04770
:1006B00044E0581E0346FFE7ECE7012F07D1012570
:1006C000346865F3492434601046324621E0012540
:1006D000346865F3082434601A4CD4F80080174657
:1006E0000D461A49304600F033F878B9154C2468A5
:1006F0005CB1B8F1000F04D10320134C2468A0476B
:100700001CE0A8F101008046FFE7EAE729463246EF
:1007100038460D1802F2100424682C70441C0D1980
:1007200002F2100424682C7008E0B8F1010F3FF4C5
:1007300007AEB8F1020F3FF489AE19E7DDF800E02B
:1007400002B07047E40100205002002001000300C5
:1007500081B0CDF800E00B46FFF758FD00EA030238
:100760009A4240F2000200D10122D0B2DDF800E04E
:1007700001B0704781B0CDF800E04FF00002194998
:10078000884207D118490B6818490A6818490A6055
:100790001C460BE01749884207D117490B681749D7
:1007A0000A6813490A601C4600E0144614490C60AC
:1007B00003461846FFF7CCFC70B91149096851B1DE
:1007C0002CB905200A4C2468A047002005E0611ED2
:1007D00008460446FFE7ECE70120DDF800E001B041
:1007E000704700BF00540040DC010020540200208C
:1007F0005002002000580040E00100205802002074
:10080000E401002001490860704700BFA8012242AE
:1008100001490860704700BFB88122420149086061
:10082000704700BF8C01224201490860704700BF39
:10083000AC01224201490860704700BFB0812242EA
:1008400001490860704700BFB08122420149086039
:10085000704700BFB001224282B0CDF800E00346ED
:1008600019460191FFF7CCFC40F2E83100FB01F2A0
:1008700001990A601F490978C1F30311C8B21E49E2
:1008800009180878C0B21A1D1968C14011601949C9
:100890000988C1F3022188B2174909180878C0B243
:1008A00003F20802191D0968C14011601149098845
:1008B000C1F3C22188B2104909180878C0B203F206
:1008C0000C02191D0968C14011600A490988C1F369
:1008D000813188B2094909180978C8B203F21002B7
:1008E00003F20C010968B1FBF0F11160DDF800E0E2
:1008F00002B0704704100240482E00008426000019
:1009000081B0194900EA0101084600220EE00420E6
:1009100022E0082020E010201EE020201CE04020E3
:100920001AE0802018E040F2001015E00F498842DC
:10093000EDD00F498842ECD00E498842EBD00E49E9
:100940008842EAD00D498842E9D00D498842E8D072
:100950000C498842E7D010460B49096841EA000279
:1009600009490A6001B0704700FCFFFF0008014020
:10097000000C01400010014000140140001801402B
:10098000001C0140002001401810024081B0CDF849
:1009900000E0012252B23E490A6000F268010B6891
:1009A0006FF0006103EA0102144603F00061C90E12
:1009B0000B4602F00041B1F1004F02D135490A68FF
:1009C00001E035490A6804F47021090C0E464FF61F
:1009D000FF7104EA01010D4604F44011B1F5401F16
:1009E0000DD16FF0706102EA01010E462A490A68D2
:1009F0006FF070610A4028490A60324616E004F43C
:100A00008011B1F5801F09D14FF00301B140C943F6
:100A100002EA010141F070610A4607E0610D090137
:100A200005FA01F1C9430A4042F070622BB1610D31
:100A3000090105FA01F10A43FFE704F00041B1F1B1
:100A4000004F02D113490A6001E013490A6040F2E5
:100A5000000A81464FEA8A0109EB01010968B1F1F8
:100A6000FF3F10D009F134014FEA8A03C918096821
:100A70000A4609EB0301096808461146FFF774FBB3
:100A80000AF1010AE6E7DDF800E001B0704700BFB7
:100A9000000342421C0001400400014083B0CDF835
:100AA00000E003464FF0000026498B4206D126495C
:100AB0000C6826490A6826490A600BE025498B42E2
:100AC00007D12549086825490A6821490A60044672
:100AD00000E0044622490C60019402931846FFF797
:100AE00049FE029B019C10B94FF6FF7025E00122E0
:100AF000196862F30821196003F214010A68C2F34D
:100B0000402111B14FF6FF7017E025461C461549EC
:100B10002046FFF71DFE78B91149096859B135B96A
:100B200006200B4C2468A0474FF6FF7005E0691EB5
:100B300008460546FFE7EAE70020DDF800E003B0DD
:100B4000704700BF00540040DC0100205402002028
:100B50005002002000580040E00100205802002010
:100B6000E40100200100030088B0CDF800E00E464B
:100B7000554B98420DD1012464B2544B1C60544C27
:100B8000544B1C60544C554B1C60554C554B1C60D1
:100B90000FE0554B98420CD1012464B2534B1C60BA
:100BA000534C4C4B1C60534C4C4B1C60524C4D4BAB
:100BB0001C60019602901046FFF7E8FE0298019E25
:100BC000031D1B689CB26FF03F0304EA03039DB250
:100BD00003AB01901846FFF73FFE0198059F059C67
:100BE000464BB4FBF3F399B29BB245EA0304A4B2BB
:100BF000031D1C600024036864F3000303600022EB
:100C00003F4B9E4212D87300B7FBF3F4A4B2042CFE
:100C100002D204231C46FFE742EA04039AB200F220
:100C200020044B1C9BB2236091B23FE0032306FBE0
:100C300003F4B7FBF4F31FFA83F8192306FB03F55B
:100C4000B7FBF5F31FFA83F908FB04F409FB05F37E
:100C50003C1BFB1A9C4205D203237343B7FBF3F4FE
:100C6000A4B206E019237343B7FBF3F4A4B244F42F
:100C7000804440F6FF7304EA030313B944F001040F
:100C8000FFE744F400439BB21A4392B200F22005FE
:100C900040F22C1301FB03F4A4B240F2E833B4FB9E
:100CA000F3F39BB25B1C9BB22B6091B200F21C036E
:100CB0001960002303600124036864F300030360E8
:100CC000DDF800E008B0704700540040D403424211
:100CD000451600005C020020D512000060020020D2
:100CE000B51400006402002000580040D8034242BE
:100CF00035140000F91200003115000040420F00C9
:100D0000A086010089B0CDF800E0834698B28C46F9
:100D1000BDF824100A9E04ACADF80410ADF808002C
:100D20002046FFF799FDBDF80800BDF80410644C9B
:100D3000A34512D101256DB2624C2560624D634C12
:100D40002560634D634C2560634D644C2560644DA4
:100D5000644C2560079C039456E0634CA34512D174
:100D600001256DB2614C2560614D584C2560614D87
:100D7000584C2560604D594C2560604D594C25609C
:100D8000069C039440E05E4CA34512D101256DB250
:100D90005C4C25605C4D4D4C25605C4D4D4C256098
:100DA0005B4D4E4C25605B4D4E4C2560069C03947C
:100DB0002AE0594CA34512D101256DB2574C25604C
:100DC000574D424C2560574D424C2560564D434C83
:100DD0002560564D434C2560069C039414E0544C0A
:100DE000A34511D101256DB2524C2560524D374CAF
:100DF0002560524D374C2560514D384C2560514D82
:100E0000384C2560069C0394ADF80410ADF808003A
:100E10003046FFF7BBFDBDF80800BDF804100BF12C
:100E2000100500242C600BF110052C680C432C607D
:100E30000BF10C0500242C6018B140F4806080B2E6
:100E4000FFE70BF10C052C6804432C600BF10C063A
:100E50000125346865F34D3434600BF10C0601252F
:100E6000346865F3C30434600BF10C060125346863
:100E700065F3820434600BF1140500242C60039D9B
:100E8000192465434FEA8C04B5FBF4F76424B7FBDF
:100E9000F4F42601350964246C433C1B240104F25C
:100EA00032056424B5FBF4F404F00F0446EA0404AC
:100EB0000BF10805A4B22C60DDF800E009B0704722
:100EC0000038014038034242F1140000680200205B
:100ED0001D1400006C02002081140000700200202C
:100EE0004D1400007402002000440040C40342423C
:100EF00099140000851300006D130000E913000031
:100F000000480040C80342429D130000D113000076
:100F1000B913000085150000004C0040CC0342428C
:100F2000651400006D15000055150000CD1500007A
:100F300000500040D003424201140000B5150000EB
:100F40009D150000D914000081B0CDF800E08CB2EE
:100F50001546774B00EA03031E461846FFF7D0FC00
:100F6000B4F1FF0F0CD1734B9D4203D14FF03333DB
:100F70003360D9E0422D03D14FF044333360D3E0E6
:100F80004FF6FF739C4214D16A4B9D4207D14FF03C
:100F900033333360341D4FF033332360C4E0422DCC
:100FA00007D14FF044333360341D4FF04433236096
:100FB000BAE00021002005F001030BB100211DE083
:100FC00005F0020333B105F4C0730BB1082100E052
:100FD000042113E005F0040333B105F020030BB145
:100FE000042100E0002109E005F0080333B105F019
:100FF00020030BB10C2100E00821FFE74E4B05EA6E
:1010000003030BB1032009E005F400730BB10220C8
:1010100004E005F480630BB10120FFE705F00C0349
:101020000BB10143FFE704F0FF039BB2002B3BD061
:10103000376800201FFA84F832462E4608282CD242
:101040004FF0010303FA00F408EA0403A34222D19B
:1010500085004FF00F03AB40DB4307EA030401FABE
:1010600005F344EA03031D4606F48173B3F5817F5B
:1010700005D102F214044FF001038340236006F00F
:101080008203822B05D102F210044FF0010383404A
:1010900023602F46FFE7401CD0E717601FFA88F057
:1010A0000F463146164602E00F462946A0B2B0F17F
:1010B000FF0F39D9331DD3F800800022082A30D21F
:1010C00002F208044FF0010303FA04F400EA0403F7
:1010D000A34224D195004FF00F03AB40DB4308EA55
:1010E000030807FA05F348EA030801F48173B3F52E
:1010F000817F07D106F2140502F208044FF00103C4
:10110000A3402B6001F08203822B07D106F2100569
:1011100002F208044FF00103A3402B60FFE7521CCA
:10112000CCE7331DC3F80080DDF800E001B0704764
:1011300000FCFFFF140008000008080082B0CDF892
:1011400000E0029E4FF00005564CA04206D1564CDE
:101150002768564C2568564C25600AE0554CA0423D
:1011600006D1554C2768554C2568514C256000E048
:101170002F46534C276000F210054C00A4B22C609F
:10118000B9460746904635461E464E493846FFF753
:10119000DFFA88B94A4C24686CB1B9F1000F06D166
:1011A0000420434C2468A0474FF6FF7076E0A9F175
:1011B00001008146FFE7E8E700200197294637460E
:1011C000019E7C1EA04226D206F2100508EB000408
:1011D00024782C603A4CD4F8009082460D463A4967
:1011E0003046FFF7B5FA88B9354C24686CB1B9F1CF
:1011F000000F06D104202E4C2468A0474FF6FF7044
:101200004CE0A9F101008146FFE7E8E70AF101049B
:1012100020462946D5E706F2100508EB000424789D
:101220002C60274C27680D4628493046FFF790FA76
:1012300070B9234C246854B137B904201C4C24687D
:10124000A0474FF6FF7029E0781E0746FFE7EBE75F
:10125000012D05D10125346865F3492434601CE073
:101260000125346865F308243460154C2768354639
:1012700017492846FFF76CFA78B9114C24685CB11D
:1012800037B904200A4C2468A0474FF6FF7005E0E8
:101290007C1E20460746FFE7EAE70020DDF800E075
:1012A00002B0704700540040DC01002054020020CE
:1012B0005002002000580040E001002058020020A9
:1012C000E40100208200070080000700840007007E
:1012D0000100030081B0CDF800E008B413460A46CF
:1012E000C1B20448FFF706F801B0DDF800E001B034
:1012F000704700BF0054004081B0CDF800E008B452
:1013000013460A46C1B20448FEF7F4FF01B0DDF807
:1013100000E001B0704700BF0058004081B0026893
:10132000C2F3401101B9FAE7011D096888B201B0A2
:101330007047FFFF81B00168C1F3401001B07047F2
:1013400081B00168C1F3801001B0704781B0ADF881
:1013500000100146BDF800000B68C3F3C01202B9CB
:10136000FAE70A1D106001B07047FFFF81B0CDF8A9
:1013700000E00348FFF7DEFFDDF800E001B0704752
:101380000044004081B0CDF800E00348FFF7C6FFFD
:10139000DDF800E001B070470044004081B0CDF8B6
:1013A00000E081B20348FFF7D1FFDDF800E001B0B3
:1013B000704700BF0048004081B0CDF800E003480E
:1013C000FFF7B8FFDDF800E001B0704700480040CB
:1013D00081B0CDF800E00348FFF7A0FFDDF800E0A2
:1013E00001B070470048004081B0CDF800E00348EC
:1013F000FFF7A6FFDDF800E001B0704700440040B1
:1014000081B0CDF800E081B20348FFF79FFFDDF81F
:1014100000E001B0704700BF0050004081B0CDF83F
:1014200000E00348FFF77AFFDDF800E001B0704705
:101430000038014081B0CDF800E00348FFF72EFBF3
:10144000DDF800E001B070470058004081B0CDF8F1
:1014500000E00348FFF774FFDDF800E001B07047DB
:101460000038014081B0CDF800E081B20348FFF7B9
:101470006DFFDDF800E001B0704700BF004C004098
:1014800081B0CDF800E00348FFF754FFDDF800E03D
:1014900001B070470038014081B0CDF800E081B262
:1014A0000348FFF753FFDDF800E001B0704700BFCD
:1014B0000044004081B0CDF800E008B413460A466D
:1014C000C1B20448FFF73AFE01B0DDF800E001B018
:1014D000704700BF0054004081B0CDF800E00348E1
:1014E000FFF72EFFDDF800E001B07047005000402C
:1014F00081B0CDF800E081B20348FFF727FFDDF8A7
:1015000000E001B0704700BF0038014082B0CDF864
:1015100000E040F20004ADF80440044C2468A04709
:10152000BDF90400DDF800E002B07047340200208D
:1015300081B0CDF800E008B413460A46C1B20448B1
:10154000FFF7FCFD01B0DDF800E001B0704700BF1F
:101550000058004081B0CDF800E00348FFF7EAFEF4
:10156000DDF800E001B07047004C004081B0CDF8DC
:1015700000E00348FFF7D2FEDDF800E001B070475D
:10158000004C004081B0CDF800E00348FFF7D8FEE2
:10159000DDF800E001B070470048004081B0CDF8B0
:1015A00000E00348FFF7C6FEDDF800E001B0704739
:1015B0000050004081B0CDF800E00348FFF7AEFED8
:1015C000DDF800E001B070470050004081B0CDF878
:1015D00000E00348FFF7B4FEDDF800E001B070471B
:1015E000004C004081B0CDF800E0019D2C4610B4C5
:1015F00008B493B28AB201460348FFF783FB02B0F6
:10160000DDF800E001B070470048004081B0CDF83F
:1016100000E00A4601460348FFF7A6FADDF800E0BD
:1016200001B070470054004081B0CDF800E0044A9A
:1016300089B2FFF789FCDDF800E001B0704700BF18
:101640001400080081B0CDF800E00348FFF726FA47
:10165000DDF800E001B070470054004081B0CDF8E3
:1016600000E0019D2C4610B408B493B28AB2014642
:101670000348FFF747FB02B0DDF800E001B0704718
:101680000038014081B0CDF800E0019D2C4610B437
:1016900008B493B28AB201460348FFF733FB02B0A5
:1016A000DDF800E001B070470044004081B0CDF8A3
:1016B00000E04FF0420289B2FFF746FCDDF800E09F
:1016C00001B0704781B0CDF800E0094902B440F2A2
:1016D000000340F2000240F20001FFF7D3FF01B027
:1016E000044A05490A600020DDF800E001B07047B7
:1016F000102D0000991400003002002081B02DE967
:10170000FA414FEA02244FEA42052D0E04D1002C83
:1017100018BF4FF000006CE044F00044FF2D5FD094
:101720004FEA9404002A48BF64424FEA00214FEA7E
:1017300040031B0E05D1002914BF4FF000001046D6
:1017400057E041F00041FF2B4BD04FEA91010028B8
:1017500048BF49425E1B41BF0F4621463C46764288
:1017600048BF2B46192E47BF44FA06F7C9194FF058
:10177000000803E0C6F11C0704FA07F8002904BFBB
:101780004FF0000035E046BF49424FF001074FF0EF
:101790000007A3F101034900FBD511F080040DD02F
:1017A00001F0200548EA0508803128BF5B1C01F0E4
:1017B000400458EA040808BF21F480719B1CDCBF78
:1017C0004FF0000015E0FF2B0DD221F0FF014FEA92
:1017D00041014FEA512040EAC35040EAC77008E097
:1017E00010464FEAD0774FEAC777FF204FEAC05044
:1017F0003843BDE8FA4101B07047FFFF82B0CDF831
:1018000000E040F20004ADF80440064C2468A04714
:10181000BDF9041041EA000000B2DDF800E002B0BA
:10182000704700BF3802002082B0CDF800E001A967
:101830000870FFF7E3FF01AA104909780023C8B236
:101840001146012200F0C6F80DF105020B49097896
:101850000123C8B211460222FFF758FE0DF105031D
:101860001978C8B2020292B2591C097842EA010101
:1018700088B2DDF800E002B0704700BFF60100203A
:1018800081B0CDF800E0094902B440F2000340F213
:10189000000240F20001FFF7A5FE01B0044A05492D
:1018A0000A600020DDF800E001B07047382C00002D
:1018B0009D1300003002002081B0CDF800E00949FE
:1018C00002B440F2000340F2000240F20001FFF7D0
:1018D000D9FE01B0044A05490A600020DDF800E0A5
:1018E00001B07047102D0000991400003002002054
:1018F00081B0002808BF19E006B554BF0146D0F1F9
:1019000000014FF09E0202D4521E4900FCD58031E6
:101910002CBF521C49004FEA512141EAC251002814
:101920004CBF41F000400846BDE8064001B070479A
:1019300081B0FAB590EA02064CBF4FF000464FF076
:101940000006010243001B0E12BF41F000414FF0A0
:1019500000003BE0FF2B35D05FEA02245FEA42053E
:101960005FEA156511BF44F000444FF0FF4030437B
:101970002CE0FF2D26D05B1B00202027640849089F
:10198000A14240EB000028BF091B7F1E04D00029A4
:1019900018BF4900F4D1B84010F0004F04BF400018
:1019A000B3F1010380302CBF5B1C40007F33DCBFF0
:1019B0004FF000000AE0FF2B04D2400A40EAC35077
:1019C000304303E0FF27FF0556EA0700BDE8FA4071
:1019D00001B0704782B0CDF800E040F20004ADF8ED
:1019E0000440054C2468A047BDF90440044320B2DC
:1019F000DDF800E002B070474802002081B0CDF869
:101A000000E0094902B440F2000340F2000240F253
:101A10000001FFF723FE01B0044A05490A600020D7
:101A2000DDF800E001B07047A42C0000F1140000C4
:101A30003002002081B00A4681B200208DB21146EA
:101A4000052805D20B1820221A70401CC0B2F7E7F7
:101A50000B1800221A70401EC0B20C180A23B5FBE6
:101A6000F3F203FB125292B2303222700A22B5FB1B
:101A7000F2F292B295B202B902E0401EC0B2ECE7B7
:101A800001B0704781B00091014600980B461C469A
:101A90005A1C15460346421C10461A7822702278BA
:101AA0000AB12B46F3E7084601B0704781B0CDF884
:101AB00000E0016808460449FFF7A8FD0020DDF8B2
:101AC00000E001B0704700BF7C2D000081B0CDF870
:101AD00000E0A9E0012905D140F220016548FFF7A7
:101AE000E5FD04E040F220016248FFF79DFDBBE008
:101AF000012905D140F208015F48FFF7D7FD04E056
:101B000040F208015C48FFF78FFDADE0012905D1E7
:101B100044F200015948FFF7C9FD04E044F2000116
:101B20005648FFF781FD9FE0012905D140F20041B1
:101B30005148FFF7BBFD04E040F200414E48FFF77B
:101B400073FD91E0012905D140F600014A48FFF7F5
:101B5000ADFD04E040F600014748FFF765FD83E076
:101B6000012905D141F200014348FFF79FFD04E040
:101B700041F200014048FFF757FD75E0012905D10A
:101B800041F200013D48FFF791FD04E041F2000100
:101B90003A48FFF749FD67E0012905D140F6000109
:101BA0003648FFF783FD04E040F600013348FFF7B5
:101BB0003BFD59E0012905D140F240012F48FFF7D4
:101BC00075FD04E040F240012C48FFF72DFD4BE08D
:101BD000012905D140F220012848FFF767FD04E004
:101BE00040F220012548FFF71FFD3DE0012905D106
:101BF00040F240012248FFF759FD04E040F2400165
:101C00001F48FFF711FD2FE0012905D140F28001A7
:101C10001B48FFF74BFD04E040F280011848FFF736
:101C200003FD21E0012020E000283FF453AF01280C
:101C30003FF45EAF02283FF469AF03283FF474AF6E
:101C400004283FF47FAF05283FF48AAF06283FF40D
:101C500095AF0728A0D00828ACD00928B8D00A280A
:101C6000C4D00B28D0D0DDE70020DDF800E001B0C3
:101C7000704700BF000801400010014000140140FF
:101C8000000C014081B0FAB590EA02064CBF4FF05B
:101C900000464FF000064FEA00214FEA40031B0EBA
:101CA00012BF41F000414FF000002CE0FF2B26D086
:101CB0004FEA02244FEA42052D0E12BF44F00044C1
:101CC0004FF000001FE0FF2D19D05B19A1FB045459
:101CD000002C5CBF64005B1E803424BF5B1C640866
:101CE0007E3BDCBF4FF000000DE0FF2B07D24FEA38
:101CF000142030F4000040EAC350304303E0FF27D3
:101D0000FF0546EA0700BDE8FA4001B07047FFFF53
:101D100081B010B5904208BF2AE040EA02044FEAC1
:101D20004404002C08BF23E0440004D1944201D4B1
:101D3000A41C012C1CE04FEA40044FEA1464FF2C61
:101D40000AD14FEA42044FEA1464FF2C04D14FEA4F
:101D5000D274B4EBD0340BE0002A06D4002802DCA5
:101D60000024012C04E0904202E0002848BF824297
:101D7000BDE8104001B0704781B0CDF800E00178B7
:101D8000CCB2A0B2034C2468A0470020DDF800E0EC
:101D900001B070473002002081B0CDF800E001684A
:101DA00008460449FFF732FC0020DDF800E001B0EE
:101DB000704700BF7C2D000000F230011C310A6822
:101DC00004490A60026804490A60011D0A6803495F
:101DD0000A6070473C0200204002002044020020BC
:101DE00081B0CDF800E0A9E0012905D140F2100151
:101DF0006548FFF75BFC04E040F210016248FFF722
:101E000013FCBBE0012905D140F204015F48FFF754
:101E10004DFC04E040F204015C48FFF705FCADE036
:101E2000012905D142F200015948FFF73FFC04E0C7
:101E300042F200015648FFF7F7FB9FE0012905D168
:101E400040F200415148FFF731FC04E040F200410C
:101E50004E48FFF7E9FB91E0012905D140F600016A
:101E60004A48FFF723FC04E040F600014748FFF72B
:101E7000DBFB83E0012905D141F200014348FFF774
:101E800015FC04E041F200014048FFF7CDFB75E08E
:101E9000012905D140F201013B48FFF707FC04E0AE
:101EA00040F201013848FFF7BFFB67E0012905D187
:101EB00040F200413648FFF7F9FB04E040F20041F0
:101EC0003348FFF7B1FB59E0012905D140F2002169
:101ED0002F48FFF7EBFB04E040F200212C48FFF70E
:101EE000A3FB4BE0012905D140F200112848FFF780
:101EF000DDFB04E040F200112548FFF795FB3DE0D3
:101F0000012905D140F240012248FFF7CFFB04E050
:101F100040F240011F48FFF787FB2FE0012905D160
:101F200040F280011B48FFF7C1FB04E040F2800152
:101F30001848FFF779FB21E0012020E000283FF45A
:101F400053AF01283FF45EAF02283FF469AF032886
:101F50003FF474AF04283FF47FAF05283FF48AAF05
:101F600006283FF495AF0728A0D00828ACD0092850
:101F7000B8D00A28C4D00B28D0D0DDE70020DDF887
:101F800000E001B0704700BF0008014000100140B0
:101F900000140140000C0140026806490A60011D5E
:101FA0000A6805490A6000F208010A6803490A60E4
:101FB000704700BF38020020480200203402002091
:101FC00081B0CDF800E05FFA81F95FFA82FA0FE0A4
:101FD0005FFA8AF15FFA89F0FFF702FF0DE05FFA1E
:101FE0008AF15FFA89F0FFF771FD06E0012004E055
:101FF0000028EDD00128F2D0F8E7DDF800E001B0CC
:102000007047FFFF84B0CDF800E001900291039289
:102010004320FFF709FC019B18804520FFF704FCD3
:10202000029B18804720FFF7FFFB039B1880DDF819
:1020300000E004B07047FFFF82B0CDF800E0024638
:102040000C460020002149B20192019AB2F1FF3FF3
:1020500006D1714A11462046FFF714FD0320D7E050
:10206000012501AAD21C127802F08002D2B272B10C
:1020700001AAD31C1A7882F080021A706A1CD3B2AB
:102080002D222270621C1446DEB2A24601E0A24656
:10209000EEB2019A32B9614A11465046FFF7F2FC9E
:1020A0000020B5E0019AB2F1FF4F06D15C4A11461B
:1020B0005046FFF7E7FCF0B2AAE05FFA80F94FFA6A
:1020C00081F8019A4FF07E50FFF722FE40F20000A7
:1020D00000DD012048B1019A5248FFF7D3FD01907D
:1020E000A8F101084FFA88F8EBE7019A4D48FFF78D
:1020F0000FFE40F2000000DC012048B1019A4A487E
:10210000FFF7C0FD019008F101084FFA88F8ECE7ED
:10211000019A5200019201AAD21C12787F3AD0B2E1
:1021200001AAD31C01221A70019A8240019201AACD
:10213000D21C127830328AF800200AF10100B8F17E
:10214000010F06DBB8F1060F03DC05465FFA89F1E3
:1021500003E02E220270451C012106204FFA88F46C
:1021600000B301AAD31C00221A70019A9300019AAD
:10217000D2180192019A5200019201AAD21C12783F
:1021800030322A706D1C51B9621E52B253B222B95C
:102190002E222A706D1C0121FFE75CB2FFE7401E72
:1021A000C0B2DDE7294660B24A1E1278302A01D15A
:1021B000491EF9E74A1E12782E2A01D1491EFFE76F
:1021C00010B365220A70491C002806DA2D220A7015
:1021D000491C424250B243B200E043B2D8B2DAB234
:1021E000092A07D90A22B0FBF2F2D2B230320A70C1
:1021F000491CFFE70A23B0FBF3F203FB1202D2B241
:1022000030320A70481C00E00846002202700020AC
:10221000DDF800E002B07047D1010020D5010020B8
:10222000D701002000002041CDCCCC3D81B0CDF8BD
:1022300000E00E46002183B2002805DA0121404269
:1022400080B280B28FB201E098B28FB23146FFF710
:10225000F1FB06213446B8B2002908D963184A1E9A
:1022600092B2A21812781A70491E89B2F4E720229D
:10227000227070B1002081B2204642181278202AC4
:1022800002D1491C89B2F8E74A1E92B283182D2266
:102290001A70DDF800E001B07047FFFF81B0CDF8A3
:1022A00000E04120FFF7C0FA00B2FFF721FB054A2A
:1022B000FFF73EFB044AFFF721FADDF800E001B02A
:1022C000704700BF0000AA43B81E124281B0CDF88B
:1022D00000E00446054B1A700846FFF75DFE2046F5
:1022E000FFF76AFDDDF800E001B07047F60100205D
:1022F00082B0CDF800E08DF80400C1B21B2000F0E0
:1023000065F89DF80400C108C8B212E0FA2210492D
:102310000A8016E040F2F4120D490A8011E040F202
:10232000E8320B490A800CE040F2D07208490A807A
:1023300007E00028EAD00128ECD00228EFD00328DB
:10234000F2D003490888DDF800E002B0704700BF12
:102350002E02002081B0CDF800E08B4609E05846FF
:10236000FFF7A4FB0AE05846FFF716FD06E0012040
:1023700004E00028F3D00128F5D0F8E7DDF800E00C
:1023800001B0704781B0CDF800E011E00846FFF7DA
:1023900077FA16E00846FFF795F912E00846FFF7CE
:1023A0002DFB0EE00846FFF787FA0AE0012008E05F
:1023B0000028EBD00128EDD02028EFD03028F1D034
:1023C000F4E7DDF800E001B07047FFFF82B0CDF820
:1023D00000E001AA1070521C1170FFF70FFA01AB58
:1023E000054A127819460123D0B20222FFF7F2FA09
:1023F000DDF800E002B07047F601002084B0CDF8AF
:1024000000E00190029103923B20FFF70DFA019B3F
:1024100018803D20FFF708FA029B18803F20FFF745
:1024200003FA039B1880DDF800E004B07047FFFF5B
:1024300083B0CDF800E0024610460D228DF808204A
:102440000A228DF809201FE0FFF796FC23E00278AE
:102450002AB10190FFF790FC0198401CF7E71AE0C1
:1024600002782AB10190FFF787FC0198401CF7E73A
:1024700002AA1046FFF780FC0DF109021046FFF793
:102480007BFC08E0062007E00029DDD00129DED032
:102490000229E5D0F6E70020DDF800E003B0704740
:1024A00082B0CDF800E08DF80400C1B21C20FFF727
:1024B0008DFF9DF80400C108C8B20FE002220E494A
:1024C0000A7013E004220C490A700FE008220A493E
:1024D0000A700BE0102208490A7007E00028EDD0CE
:1024E0000128EFD00228F1D00328F3D00249087860
:1024F000DDF800E002B07047F701002081B0154818
:10250000006840F00101134801601349134801605D
:1025100010480168124801400E4801600D480168EA
:102520006FF4802001400B4801600C4801686FF493
:10253000FE00014009480160064801686FF0A050A4
:102540000140044801604FF000010648016001B0FD
:10255000704700BF001002400000FFF0041002406E
:10256000FFFFF6FE2C10024081B0CDF800E069229A
:1025700027492848FFF7AAFE27480221FFF758FFFE
:1025800080216B20FFF722FF042040F00200C0B240
:1025900040F00100C1B26820FFF718FF1F48022178
:1025A000FFF746FF00216B20FFF710FF01213820C5
:1025B000FFF70CFF0020FFF79BFE19490880002061
:1025C000FFF76EFF17490870802040F04000C0B24E
:1025D00040F02000C0B240F01000C0B240F008004F
:1025E000C1B22320FFF7F2FE41F6FF27C0F2B70782
:1025F0007F1EFDD100BF00BF00BF00BF00BF0A4863
:102600000221FFF715FFDDF800E001B0704700BFC1
:10261000642E0000E82D0000150000202C00002092
:10262000E8010020DB0100204B000020A086010013
:1026300081B0CDF800E0012207210020FFF7C0FCA7
:102640000E4801460020FFF785FE4FF4E1312020BF
:10265000FFF798FE0A480221FFF7EAFE44F67F776B
:10266000C0F2120700BF00BF7F1EFDD100BF00BF38
:1026700000BFDDF800E001B0704700BF2C2600006D
:10268000000000200204060881B0CDF800E0614A95
:1026900061496248FFF7B2FE614A62496248FFF74A
:1026A000B1FCFFF7FBFD6149086061480221FFF7BB
:1026B000BFFE60480221FFF7BBFE5F480221FFF723
:1026C000B7FE5E480121FFF7B3FE5448B0F90000A1
:1026D0005B49FFF7ABFD01215948FFF7A9FE5948B7
:1026E0000121FFF7A5FE4C48B0F900005449FFF75F
:1026F0009DFD01215248FFF79BFE53480121FFF742
:1027000097FE4448B0F900004D49FFF78FFD0121C5
:102710004B48FFF78DFE4D480121FFF789FE4C48DD
:1027200000784749FFF782FD01214548FFF780FE09
:1027300048480221FFF77CFE47480221FFF778FE58
:1027400046480121FFF774FE3748B0F900003C49C4
:10275000FFF76CFD01213A48FFF76AFE404801216E
:10276000FFF766FE2F48B0F900003549FFF75EFD20
:1027700001213348FFF75CFE3A480121FFF758FE7C
:102780002748B0F900002E49FFF750FD01212C48E1
:10279000FFF74EFE34480121FFF74AFE3348008818
:1027A0002749FFF743FD01212548FFF741FE304847
:1027B0000221FFF73DFE2F480221FFF739FE1B489B
:1027C00000681F49FFF738FC00212B4801702B4897
:1027D0000121FFF72DFE01211948FFF729FE2848A6
:1027E0000221FFF725FE27480221FFF721FE264898
:1027F0000221FFF71DFE43F2FF57C0F26E1700BF24
:1028000000BF7F1EFDD100BF00BF00BFDDF800E0AC
:1028100001B07047EE010020EC010020EA01002029
:10282000F4010020F2010020F0010020F801002056
:102830006700002098000020C9000020FA00002056
:10284000FC010020060100200A0100200E010020EA
:10285000DB010020120100201701002048010020A8
:1028600054010020580100205C010020E8010020F4
:102870006001002065010020010200209601002077
:10288000A2010020B0010020CE01002081B01CF880
:10289000019B0BF8019BBBEB0A0FF8D101B070470D
:1028A00081B04FF000094FF0000CBDEB0A0F04DCC3
:1028B000BDEB0B0F01DBD446EA464BF8049BBBEBA8
:1028C0000A0FFAD1BCEB0A0F05DDE246D9F800B0D9
:1028D0000BF1040BF1E701B07047FFFF81B0024933
:1028E0000248016001B07047401901004C0200200D
:1028F00081B0FEE701B0704781B0CDF800E0464AF4
:10290000464B474C47494BF68030814206D94648F2
:10291000006840F002014448016011E045F6C050F3
:10292000814206D94048006840F001013E480160FC
:1029300006E03D4801686FF0070001403A48016039
:10294000FFF7DCFD3948036039480460394802EA82
:1029500000013948016002F0010040B119463648D3
:10296000006800F00200002800D1F8E700E01946F6
:1029700002F4803040B10B462F48006800F400306C
:10298000002800D1F8E700E00B4602F0805068B163
:102990002948006840F080512748016026480068B7
:1029A00000F00050002800D1F8E7FFE702F0806057
:1029B00078B12148006840F080611F4801601146ED
:1029C0001A461D48006800F00060002800D1F8E7B2
:1029D00001E011461A4601F0807070B11648006897
:1029E00040F080711448016011461348006800F0FF
:1029F000007000B9F9E70A46FFE70C48006800F0EC
:102A00000C01900000F00C00814200D0F5E7DDF8E9
:102A100000E001B0704700BF8100010502841D0085
:102A20004406010040190100002002400410024049
:102A30002C100240FFFF0F0000100240FFF75CFF68
:102A400000F064FAFFF74AFF00F012FAFFF7F0FD1A
:102A5000FFF78AFDFFF718FEFCE7FEE7202D2D2D7E
:102A60002053797374656D20496E6974202D2D2D66
:102A700000202D2D2D2044657669636520526573F5
:102A80006574202D2D2D2000202D2D2D20446576C0
:102A900069636520436F6E66696775726174696FFB
:102AA0006E202D2D2D2000202D2D2D205374617290
:102AB00074204D6561737572656D656E74202D2D82
:102AC0002D20005F5F5F5F5F5F5F5F5F5F5F5F5FE6
:102AD0005F5F5F20416363656C203820636C6963CE
:102AE0006B205F5F5F5F5F5F5F5F5F5F5F5F5F5F29
:102AF0005F5F5F007C2020446174612020207C2087
:102B0000582061786973207C20592061786973208E
:102B10007C205A2061786973207C202052616E6786
:102B20006520207C007C5F5F5F5F5F5F5F5F5F7C35
:102B30005F5F5F5F5F5F5F5F7C5F5F5F5F5F5F5F88
:102B40005F7C5F5F5F5F5F5F5F5F7C5F5F5F5F5F5B
:102B50005F5F5F5F7C007C2020416363656C2020A9
:102B60007C0020207C0020207C0020207C0020672E
:102B7000207C007C5F5F5F5F5F5F5F5F5F7C5F5FAC
:102B80005F5F5F5F5F5F7C5F5F5F5F5F5F5F5F7C1B
:102B90005F5F5F5F5F5F5F5F7C5F5F5F5F5F5F5F28
:102BA0005F5F7C007C20204779726F2020207C00B2
:102BB00020207C0020207C0020207C006470737C1E
:102BC000007C5F5F5F5F5F5F5F5F5F7C5F5F5F5F3A
:102BD0005F5F5F5F7C5F5F5F5F5F5F5F5F7C5F5FCB
:102BE0005F5F5F5F5F5F7C5F5F5F5F5F5F5F5F5FD8
:102BF0007C007C202054656D702020207C002020EB
:102C0000432020202020202020207C007C5F5F5F4C
:102C10005F5F5F5F5F5F7C5F5F5F5F5F5F5F5F5FA7
:102C20005F5F5F5F5F5F5F5F7C002020004E614EF3
:102C3000003000494E4600FF380000003900000017
:102C4000FFFFFFFF00000000000000000000000088
:102C50000000000000000000000000000000000074
:102C60000000000000000000000000001808000044
:102C7000180000000000000000000000000000003C
:102C80000000000000000000000000000000000044
:102C90000000000000000000000000000000000034
:102CA00030001408090000000A000000FFFFFFFFC9
:102CB0000000000000000000000000000000000014
:102CC0000000000000000000000000000000000004
:102CD00000000000000000001808000018000000BC
:102CE00000000000000000000000000000000000E4
:102CF00000000000000000000000000000000000D4
:102D000000000000000000000000000004000000BF
:102D10003500000036000000FFFFFFFF000000004C
:102D200000000000000000000000000000000000A3
:102D30000000000000000000000000000000000093
:102D4000000000001808000018000000000000004B
:102D50000000000000000000000000000000000073
:102D60000000000000000000000000000000000063
:102D7000000000000000000008000008160000002D
:102D800017000000FFFFFFFF000000000000000030
:102D90000000000000000000000000000000000033
:102DA0000000000000000000000000000000000023
:102DB00028080000280800000000000000000000B3
:102DC0000000000000000000000000000000000003
:102DD00000000000000000000000000000000000F3
:102DE0000000000002000000890200007D020000D7
:102DF0007102000095020000B9020000AD0200005F
:102E0000A102000065020000350200002902000056
:102E10004102000059020000FFFFFFFFFFFFFFFF1C
:102E2000FFFFFFFFFFFFFFFFFFFFFFFFFFFFFFFFB2
:102E3000FFFFFFFFFFFFFFFFFFFFFFFFFFFFFFFFA2
:102E4000FFFFFFFFFFFFFFFF000000000102030480
:102E5000010203040607080900000000000000004A
:102E60000000000045160000B5140000D512000057
:102E700000B5DFF824B0DFF824A0DFF824C0FFF7A6
:102E800005FDDFF820B0DFF820A0DFF820C0FFF755
:102E9000FDFC00BD704700BF00000020DB010020EA
:102EA0005C2A0000DC010020E8010020582E000010
:102EB000FFFFFFFFFFFFFFFFFFFFFFFFFFFFFFFF22
:102EC000FFFFFFFFFFFFFFFFFFFFFFFFFFFFFFFF12
:102ED000FFFFFFFFFFFFFFFFFFFFFFFFFFFFFFFF02
:102EE000FFFFFFFFFFFFFFFFFFFFFFFFFFFFFFFFF2
:102EF000FFFFFFFFFFFFFFFFFFFFFFFFFFFFFFFFE2
:102F0000FFFFFFFFFFFFFFFFFFFFFFFF00B5DFF841
:102F100010B0DFF810A0FFF7C3FC00BD704700BF82
:102F20000000002078020020FFFFFFFFFFFFFFFFEF
:00000001FF
